S010000070726F6A656374732E73726563AA
S11300000C942A000C9439010C9462010C948C0118
S11300100C9447000C9447000C9447000C94470040
S11300200C9447000C9447000C9447000C94470030
S11300300C9447000C9447000C9447000C94470020
S11300400C9447000C9447000C9447000C94470010
S11300500C94470011241FBECFE5D8E0DEBFCDBF0E
S113006010E0A0E6B0E0E2ECF6E002C005900D92EC
S1130070AA38B107D9F720E0AAE8B0E001C01D9280
S1130080A439B207E1F70E94B5010C945F030C9404
S11300900000CF9380918A00813049F5C4E68091B5
S11300A08B000E9408018AE00E94ED00811103C0C8
S11300B00E94080102C0C15091F780918B008150C9
S11300C080938B008111EACF10928D0010928C00E6
S11300D061E08BE00E94980210928A002FEF87E87B
S11300E093E1215080409040E1F700C00000CF919F
S11300F0089588E00E94ED008823D9F380918D0053
S1130100893019F410928D0003C08F5F80938D00A5
S113011090918C0080918D002AE0929F800D112493
S113012080938B000C94080189E00E94ED008823E1
S1130130D9F380918C00893019F410928C0003C09B
S11301408F5F80938C0090918C0080918D002AE0C9
S1130150929F800D112480938B000C940801909140
S11301608C0080918D002AE0929F800D1124809351
S11301708B00C1E080918B000E94080160E08BE05D
S11301800E94980289E00E94ED0081110AC089E072
S11301900E94ED008823D9F3C0938A000E94940042
S11301A0E9CF88E00E94ED0081110AC088E00E9436
S11301B0ED008823D9F3C0938A000E947900DACF36
S11301C08AE00E94ED008111D5CF8AE00E94ED0003
S11301D08823D9F30E944900CDCFCF93DF93D82F42
S11301E00E943603813049F0823071F48D2F0E94D1
S11301F01903C1E0882341F006C08D2F0E94190322
S1130200C1E0813009F0C0E08C2FDF91CF910895D7
S1130210CF93C82F61E08CE00E94980260E087E0F1
S11302200E9498028C2F6AE00E945303C92FE82F82
S1130230F0E0E05AFF4F80818BBB8FEC97E0019791
S1130240F1F700C0000061E087E00E94980260E0DE
S11302508CE00E949802EC2FF0E0E05AFF4F80817E
S11302608BBB8FEC97E00197F1F700C00000CF91B2
S113027008951F920F920FB60F9211242F933F935C
S11302804F935F936F937F938F939F93AF93BF939A
S1130290EF93FF93E0919200F0919300309709F06F
S11302A00995FF91EF91BF91AF919F918F917F91AC
S11302B06F915F914F913F912F910F900FBE0F90CF
S11302C01F90189578941F920F920FB60F921124D5
S11302D02F933F934F935F936F937F938F939F934A
S11302E0AF93BF93EF93FF93E0919000F09191004F
S11302F0309709F00995FF91EF91BF91AF919F91CC
S11303008F917F916F915F914F913F912F910F90BA
S11303100FBE0F901F9018951F920F920FB60F9259
S113032011242F933F934F935F936F937F938F93F6
S11303309F93AF93BF93EF93FF93E0918E00F0915F
S11303408F00309709F00995FF91EF91BF91AF911C
S11303509F918F917F916F915F914F913F912F91D9
S11303600F900FBE0F901F9018950E94BA010E9423
S1130370AF00FDCFEAE6F0E040E081E090E051918B
S1130380342F369536953695242F2770513009F43D
S113039043C020F0523009F482C0C5C0323001F1AC
S11303A0333061F1313071F05AB3BC0102C0660FD1
S11303B0771F2A95E2F79B01352F322B3ABB3BB3CB
S11303C020953DC057B3BC0102C0660F771F2A9524
S11303D0E2F79B01352F322B37BB38B320953EC053
S11303E054B3BC0102C0660F771F2A95E2F79B0144
S11303F0352F322B34BB35B320953FC051B3BC01EC
S113040002C0660F771F2A95E2F79B01352F322B26
S113041031BB32B3209541C0323011F1333081F118
S1130420313079F05AB3BC0102C0660F771F2A95A8
S1130430E2F79B012095352F32233ABB3BB32323AC
S113044042C057B3BC0102C0660F771F2A95E2F77A
S11304509B012095352F322337BB38B3232343C068
S113046054B3BC0102C0660F771F2A95E2F79B01C3
S11304702095352F322334BB35B3232325BB53C0FA
S113048051B3BC0102C0660F771F2A95E2F79B01A6
S11304902095352F322331BB32B3232343C032306E
S11304A021F1333089F1313081F05AB3BC0102C0FB
S11304B0660F771F2A95E2F79B01362F3095352377
S11304C03ABB3BB3232B2BBB2EC057B3BC0102C09A
S11304D0660F771F2A95E2F79B01362F3095352357
S11304E037BB38B3232B28BB1EC054B3BC0102C096
S11304F0660F771F2A95E2F79B01362F3095352337
S113050034BB35B3232BBACF51B3BC0102C0660F41
S1130510771F2A95E2F79B01362F3095352331BB9F
S113052032B3232B22BB4F5F403209F028CF08950A
S1130530982F96959695969587706130C1F5913070
S113054091F028F09230D9F0933029F108954BB30B
S113055021E030E0B90102C0660F771F8A95E2F707
S1130560CB01842B3AC048B321E030E0B90102C08A
S1130570660F771F8A95E2F7CB01842B3CC045B305
S113058021E030E0B90102C0660F771F8A95E2F7D7
S1130590CB01842B3EC042B321E030E0B90102C05C
S11305A0660F771F8A95E2F7CB01842B40C0611157
S11305B03FC09130A1F028F09230F9F0933059F116
S11305C008954BB321E030E0B90102C0660F771FF4
S11305D08A95E2F7CB01809584238BBB089548B3B9
S11305E021E030E0B90102C0660F771F8A95E2F777
S11305F0CB018095842388BB089545B321E030E086
S1130600B90102C0660F771F8A95E2F7CB01809586
S1130610842385BB089542B321E030E0B90102C0D0
S1130620660F771F8A95E2F7CB018095842382BBFE
S11306300895282F2770869586958695813049F0F0
S113064030F0823041F0833079F480B305C089B34F
S113065003C086B301C083B390E002C0959587952B
S11306602A95E2F78170089580E00895282F277075
S1130670869586958695813049F030F0823041F038
S1130680833079F482B305C08BB303C088B301C04F
S113069085B390E002C0959587952A95E2F781701D
S11306A0089580E00895991B79E004C0991F961776
S11306B008F0961B881F7A95C9F780950895F894D9
S10506C0FFCF66
S11306C23F065B4F666D7D077F6F000000000000F0
S11306D20000020202000000000001000000020209
S10D06E20202000000000000000006
S9030000FC
